:100000000C9463010C9494010C9494010C9494014D
:100010000C9494010C9494010C9494010C9494010C
:100020000C9494010C9494010C9494010C949401FC
:100030000C9494010C9494010C9494010C949401EC
:100040000C9494010C9494010C9494010C949401DC
:100050000C9494010C9494010C9494010C948403DA
:100060000C9494010C94F8030C94CE030C9494011A
:100070000C9494010C9494010C9494010C949401AC
:100080000C9494010C9494010C9494010C9494019C
:100090000C9494010C9494010C9494010C943906E2
:1000A0000C9494010C9494010C9494010C9494017C
:1000B0000C9494010C9494010C9494010C9494016C
:1000C0000C9494010C9494010C9494010C9494015C
:1000D0000C9494010C9494010C9494010C9494014C
:1000E0000C9494014505480537053B0541057F05FE
:1000F0004C05500556055A055E05640568056C05F6
:100100007F05720576057A050C94D1020C944C0596
:100110000C9472050C94E3010C945E050C947A0522
:100120000C94C0010C94CE040C946C050C94D50274
:100130000C9437050C945A050C9476020C946805BF
:100140000C94F1010C9429020C94A0040C94450524
:100150000C9450050C94D9020C94FB040C947F056C
:100160000C943B050C94B2040C9496010C94A204DC
:100170000C94F10A0C94D2020C9441050C9476056F
:100180000C94DD020C9464050C94A1040C94C60438
:100190000C94CF010C9456050C9448050C9445041E
:1001A0000C94A30400002100240027002A002D0045
:1001B0003000330001010000040107010A010000C2
:1001C0002200250028002B002E00310034000201FF
:1001D0000000050108010B0100002000230026009B
:1001E00029002C002F00320000010000030106014D
:1001F00009010505050507050808080802020202AD
:100200000A0A0808040404040101010101010101B2
:100210000303030303030303040707070C0C0C0C7D
:100220000C0C0C0C02020202060606060606060666
:100230000B0B0B0B0B0B0B0B0102102020080810F3
:100240002040102040800201020108040201010246
:10025000040810204080804020100804020180041F
:10026000020180402010080402010804020101027A
:100270000408102040800102040810204080000083
:100280000A0B02090C0D0E08070304010000000010
:10029000000000000000000000000000000000005E
:1002A000000000000000000000001211100000001B
:1002B000000000000000000000000000000000003E
:1002C00000000000F10A11241FBECFEFD1E2DEBF13
:1002D000CDBF00E00CBF12E0A0E0B2E0EEE6F7E137
:1002E00000E00BBF02C007900D92A836B107D9F706
:1002F00024E0A8E6B2E001C01D92AC34B207E1F7F9
:1003000011E0C3E6D1E000E006C021970109802F8B
:10031000FE010E94A80BC236D10780E00807A9F7AA
:100320000E9439080C94B50B0C940000CF92DF9218
:10033000EF92FF920F931F93CF93DF936C017A019B
:100340008B01C0E0D0E0CE15DF0581F0D8016D91C2
:100350008D01D601ED91FC910190F081E02DC60157
:100360001995892B11F02196EECF7E01C701DF91FF
:10037000CF911F910F91FF90EF90DF90CF90089554
:10038000FC01538D448D252F30E0842F90E0821B9B
:10039000930B541710F0CF96089501970895FC0120
:1003A000918D828D981761F0828DDF01A80FB11DAC
:1003B0005D968C91928D9F5F9F73928F90E00895D0
:1003C0008FEF9FEF0895FC01918D828D981731F08A
:1003D000828DE80FF11D858D90E008958FEF9FEFDE
:1003E0000895FC01918D228D892F90E0805C9F4FB4
:1003F000821B91098F739927089580ED92E00E94E6
:10040000F10121E0892B09F420E0822F0895FC01FD
:10041000848DDF01A80FB11DA35ABF4F2C91848D8D
:1004200090E001968F739927848FA689B7892C93C2
:10043000A089B1898C91837080648C93938D848D15
:10044000981306C00288F389E02D80818F7D808318
:100450000895EF92FF920F931F93CF93DF93EC01D8
:1004600081E0888F9B8D8C8D981305C0E889F98970
:10047000808185FD26C0F62E0B8D10E00F5F1F4F8B
:100480000F731127E02E8C8DE8120CC00FB607FCFD
:10049000FACFE889F989808185FFF5CFCE010E94E6
:1004A0000702F1CF8B8DFE01E80FF11DE35AFF4FDC
:1004B000F0829FB7F8940B8FEA89FB898081806274
:1004C0000AC09FB7F894EE89FF896083E889F989AB
:1004D00080818370806480839FBF81E090E0DF91A2
:1004E000CF911F910F91FF90EF900895CF93DF93DD
:1004F000EC01888D8823C9F0EA89FB89808185FD1C
:1005000005C0A889B9898C9186FD0FC00FB607FC7C
:10051000F5CF808185FFF2CFA889B9898C9185FFBD
:10052000EDCFCE010E940702E7CFDF91CF91089572
:1005300080E090E0892B21F00E94FD01811125C00F
:1005400080E090E0892B41F080E090E0892B21F061
:100550000E94000081111CC080E090E0892B41F0D6
:1005600080E090E0892B21F00E940000811113C0EF
:1005700080E090E0892BA1F080E090E0892B81F071
:100580000E94000081110AC008950E940000D8CF87
:100590000E940000E1CF0E940000EACF0C9400000E
:1005A0000895089580E090E00895862F642F0C94BC
:1005B000C307862F642F0C949407862F0C946B0727
:1005C0000E94B00BCF93FC01C48121E020939002E4
:1005D000C093680210929402109293028485682B53
:1005E00084EC92E00E94FB0490919302913208F017
:1005F00045C080919A028111FCCF82E080939A02DB
:1006000081E080939C028FEF809399021092BE024A
:100610009093BD02A0E7B2E0EDE9F2E080E0981728
:1006200021F02D9121938F5FFACF1092BF0280911C
:10063000BF02CC0FC82BC093BF0280919B028130B8
:1006400061F410929B028091BF028093BB00809165
:10065000BC0083FDF8CF85EC01C085EE8093BC0023
:1006600080919A028230E1F3809199028F3F31F0BC
:1006700080919902803211F0809199021092940237
:100680001092930210929002CF9108950F931F93AE
:10069000CF938C01C62F0E94E2026C2F6460C801C8
:1006A0000E94E2026C2F6B7FC8010E94E20283EC81
:1006B00090E00197F1F7CF911F910F9108953FB707
:1006C000F89480916C0290916D02A0916E02B091AD
:1006D0006F0226B5A89B05C02F3F19F00196A11DFA
:1006E000B11D3FBFBA2FA92F982F8827820F911DC8
:1006F000A11DB11DBC01CD0142E0660F771F881F0F
:10070000991F4A95D1F708951F920F920FB60F9235
:1007100011242F933F938F939F93AF93BF93809117
:10072000C0029091C102A091C202B091C302309167
:100730006B0223E0230F2D3720F40196A11DB11D7C
:1007400005C026E8230F0296A11DB11D20936B0260
:100750008093C0029093C102A093C202B093C302DF
:1007600080916C0290916D02A0916E02B0916F0227
:100770000196A11DB11D80936C0290936D02A09310
:100780006E02B0936F02BF91AF919F918F913F9195
:100790002F910F900FBE0F901F9018951F920F92E0
:1007A0000FB60F9211240BB60F922F933F934F93D6
:1007B0005F936F937F938F939F93AF93BF93EF93C9
:1007C000FF9380ED92E00E940702FF91EF91BF91AD
:1007D000AF919F918F917F916F915F914F913F91D9
:1007E0002F910F900BBE0F900FBE0F901F9018957A
:1007F0001F920F920FB60F9211240BB60F922F93E8
:100800008F939F93EF93FF93E091E002F091E102C9
:100810008081E091E602F091E70282FD12C09081B2
:100820008091E9028F5F8F732091EA02821751F065
:10083000E091E902F0E0E053FD4F958F8093E902EB
:1008400001C08081FF91EF919F918F912F910F9027
:100850000BBE0F900FBE0F901F9018950F931F9314
:10086000CF93DF938C01C62FD42F607F642B0E941F
:10087000460380E1C89FB00111246D2BC801DF91B0
:10088000CF911F910F910C94460341E00E942E04DA
:1008900081E090E0089596E0899FD0011124A3594A
:1008A000BC4F90967C936E935F9791E091969C934A
:1008B00091979091D903E091DA03F091DB039923AA
:1008C00039F0309751F0811108C08091890304C03C
:1008D000309719F05C968C911994089585ED80936A
:1008E000BC008091BC0084FDFCCF10929A02089558
:1008F00040912904262F30E0240F311D213231058B
:10090000DCF420919A022430C9F4FC0180E090E0EC
:10091000861758F4309129042191DC01A75FBB4F61
:10092000A30FB11D2C930196F3CF80912904680F7A
:100930006093290480E0089581E0089582E008959D
:10094000089508950895E091920280919102E81728
:1009500030F4F0E0E751FC4F808190E008958FEF94
:100960009FEF08959091920280919102981750F410
:10097000E92FF0E0E751FC4F208130E09F5F90933A
:10098000920202C02FEF3FEFC901089580919102BA
:1009900090E020919202821B91090895CF92DF92FC
:1009A000EF92FF920F931F93CF93DF937C01CB01C4
:1009B0008A0120919002222389F0EB016B01C40E81
:1009C000D51ECC15DD0569F06991D701ED91FC913B
:1009D0000190F081E02DC7011995F3CF642F0E949B
:1009E0007804C801DF91CF911F910F91FF90EF9094
:1009F000DF90CF900895CF93DF931F92CDB7DEB7EE
:100A00006983209190022223D1F020919302203219
:100A100040F021E030E0FC013383228380E090E06D
:100A200015C080919402E82FF0E0E059FD4F9981C4
:100A300090838F5F809394028093930205C061E05E
:100A4000CE0101960E94780481E090E00F90DF9142
:100A5000CF91089590E0FC013197E231F10508F063
:100A60004EC08827EE58FF4F8F4F0C94A80B8091F3
:100A700080008F7703C0809180008F7D80938000FD
:100A8000089580918000877FF9CF84B58F7702C069
:100A900084B58F7D84BD08958091B0008F7703C0A9
:100AA0008091B0008F7D8093B00008958091900078
:100AB0008F7707C0809190008F7D03C08091900058
:100AC000877F8093900008958091A0008F7707C062
:100AD0008091A0008F7D03C08091A000877F8093CC
:100AE000A0000895809120018F7707C08091200198
:100AF0008F7D03C080912001877F8093200108951E
:100B0000CF93DF93CDB7DEB728970FB6F894DEBF4B
:100B10000FBECDBF98E0E8E1F2E0DE011196019052
:100B20000D929A95E1F79091E403981710F48FEFE6
:100B3000890FFE013196E80FF11DE80FF11D60816C
:100B4000606840E08CED93E028960FB6F894DEBF25
:100B50000FBECDBFDF91CF910C942E044DE050E03D
:100B60006AE572E08CED93E00C94960140E061E060
:100B70008CED93E00E942E048BE39FE10197F1F747
:100B80008091E503882319F080E00C948005089596
:100B9000CF92DF92EF92FF920F931F9396E0899F7F
:100BA000F0011124E359FC4F11A2278D30A121300F
:100BB000310539F158F02230310509F447C02330AE
:100BC000310509F04FC060E070E044C0662309F4CD
:100BD00049C061E070E00E944B042FB7F894809107
:100BE000C0029091C102A091C202B091C3022FBF76
:100BF0008093C5039093C603A093C703B093C80323
:100C000031C09FB7F894C090C002D090C102E0906C
:100C1000C202F090C3029FBF0091C5031091C603AA
:100C20002091C7033091C803C01AD10AE20AF30A1F
:100C30000091D7031091D80320E030E00C151D057A
:100C40002E053F0518F462E070E004C061110AC08F
:100C500063E070E01F910F91FF90EF90DF90CF90D5
:100C60000C944B041F910F91FF90EF90DF90CF9069
:100C700008951F920F920FB60F9211240BB60F9288
:100C80002F933F934F935F936F937F938F939F9394
:100C9000AF93BF93EF93FF938091B900887F803625
:100CA00009F49CC068F5883209F45BC090F4803187
:100CB00009F454C038F4882309F4F6C0883009F4E4
:100CC0004DC0F6C0883109F44CC0803209F45DC0D3
:100CD000EFC0803409F468C048F4803309F455C08B
:100CE000883309F0E5C080939902D8C0803509F4B3
:100CF0004FC0883509F45DC0883409F0D9C0D6C02A
:100D0000883909F4C7C0A8F4883709F467C038F4F3
:100D1000883609F463C0803709F460C0C9C08838D8
:100D200009F4B8C0803909F45FC0803809F0C0C048
:100D30005BC0803B09F486C038F4803A09F466C091
:100D4000883A09F47FC0B4C0803C09F4A7C0883C4D
:100D500009F4A4C0883B09F48AC0AAC08091BF02EC
:100D600010C09091BE028091BD02981770F5E0917D
:100D7000BE0281E08E0F8093BE02F0E0E356FD4F8D
:100D800080818093BB0085EC86C0809399028EC0E1
:100D9000E091BE0281E08E0F8093BE028091BB0085
:100DA000F0E0E356FD4F80839091BE028091BD023A
:100DB0006EC0E091BE0281E08E0F8093BE028091F2
:100DC000BB00F0E0E356FD4F808380919C028111CF
:100DD0006DC081E080939B0284EA61C083E08093D0
:100DE0009A0210924B04CFCF80914B04803208F0CE
:100DF00051C0E0914B0481E08E0F80934B048091B1
:100E0000BB00F0E0E55DFB4F8083BDCF85EC8093B8
:100E1000BC0010929A0280914B04803230F4E09131
:100E20004B04F0E0E55DFB4F108260914B0470E0F5
:100E3000E0919702F09198028BE294E0199510925C
:100E40004B0436C084E080939A0210922A041092D8
:100E50002904E0919502F091960219958091290458
:100E6000811105C081E08093290410920904E0916A
:100E70002A0481E08E0F80932A04F0E0E75FFB4FA5
:100E800080818093BB0090912A0480912904981757
:100E900008F479CF85E88093BC000AC085EC809384
:100EA000BC0010929A0204C0109299020E946E0433
:100EB000FF91EF91BF91AF919F918F917F916F9132
:100EC0005F914F913F912F910F900BBE0F900FBEEE
:100ED0000F901F901895CF93DF93282F30E0F901E2
:100EE000E258FD4F8491F901E85CFD4FD491F9017E
:100EF000EE50FE4FC491CC2391F081110E942A053F
:100F0000EC2FF0E0EE0FFF1FE852FE4FA591B491D9
:100F1000EC91ED2381E090E021F480E002C080E0DC
:100F200090E0DF91CF9108951F93CF93DF93282F07
:100F300030E0F901E258FD4F8491F901E85CFD4F82
:100F4000D491F901EE50FE4FC491CC23C1F0162F7D
:100F500081110E942A05EC2FF0E0EE0FFF1FE254F2
:100F6000FE4FA591B4919FB7F894111104C08C91D4
:100F7000D095D82302C0EC91DE2BDC939FBFDF918C
:100F8000CF911F910895CF93DF9390E0FC01E85C2F
:100F9000FD4F2491FC01EE50FE4F8491882361F1B6
:100FA00090E0880F991FFC01EC55FE4FC591D4913C
:100FB000FC01E254FE4FA591B491611109C09FB7A5
:100FC000F8948881209582238883EC912E230BC08E
:100FD000623061F49FB7F8948881322F3095832373
:100FE0008883EC912E2B2C939FBF06C08FB7F8946B
:100FF000E8812E2B28838FBFDF91CF9108958F92A8
:101000009F92AF92BF92CF92DF92EF92FF926B01CD
:101010007C010E945F034B015C01C114D104E10417
:10102000F104F1F00E945F03DC01CB0188199909FA
:10103000AA09BB09883E9340A105B10570F321E0E0
:10104000C21AD108E108F10888EE880E83E0981EE4
:10105000A11CB11CC114D104E104F10419F7DDCFC6
:10106000FF90EF90DF90CF90BF90AF909F908F90C8
:101070000895789484B5826084BD84B5816084BD10
:1010800085B5826085BD85B5816085BD80916E0026
:10109000816080936E001092810080918100826057
:1010A0008093810080918100816080938100809194
:1010B00080008160809380008091B1008460809383
:1010C000B1008091B00081608093B0008091910068
:1010D0008260809391008091910081608093910063
:1010E000809190008160809390008091A100826047
:1010F0008093A1008091A10081608093A1008091E4
:10110000A00081608093A000809121018260809383
:101110002101809121018160809321018091200132
:1011200081608093200180917A00846080937A00AE
:1011300080917A00826080937A0080917A00816049
:1011400080937A0080917A00806880937A00109270
:10115000C100E091E002F091E10282E08083E09141
:10116000DC02F091DD021082E091DE02F091DF02FC
:101170008FEC80831092E802E091E402F091E502A6
:1011800086E08083E091E202F091E3028081806159
:101190008083E091E202F091E302808188608083A5
:1011A000E091E202F091E302808180688083E09127
:1011B000E202F091E30280818F7D8083109292029F
:1011C00010929102109294021092930210929A023D
:1011D00081E080939C0210929B0261E084E10E9476
:1011E000940761E085E10E9494078091B9008E7FA9
:1011F0008093B9008091B9008D7F8093B90088E415
:101200008093B80085E48093BC0080EA94E09093DA
:1012100096028093950281EA94E0909398028093DD
:1012200097021092E1038091E703823018F098E072
:101230009093E1038093E40362E370E080E090E048
:101240000E94FF076091E8038CED93E00E94E202A8
:1012500068EE73E080E090E00E94FF0760E38CEDB1
:1012600093E00E944603CBE4D6E4CE010197F1F768
:1012700060E38CED93E00E9446032197F1F760E371
:101280008CED93E00E94460383E592E00197F1F72D
:1012900060E28CED93E00E9446036091E10360629E
:1012A00040E08CED93E00E942E0484E08093E20302
:1012B00040E06CE08CED93E00E942E040E94B605A5
:1012C00082E08093E30340E066E08CED93E00E94CF
:1012D0002E0440E062E08CED93E00E942E048BE34C
:1012E0009FE10197F1F788E08093E80360E08CEDDF
:1012F00093E00E94E20280E00E9480050E94AE0519
:1013000081E00E9480050E94AE0582E00E94800577
:101310000E94AE0583E00E9480050E94AE0580E039
:101320000E948005412C512C3201439459EAC52E6C
:1013300053E0D52E22242A94322C21E02093D90385
:101340008FB7F8944091C0025091C1026091C202DF
:101350007091C3028FBF8091C9039091CA03A0917D
:10136000CB03B091CC03481B590B6A0B7B0B8091CC
:10137000D5039091D603A0E0B0E084179507A607A7
:10138000B70708F0E4C0C0E08091D303C81710F09D
:10139000912C40C0E091CF03F091D003EC0FF11DF0
:1013A00062E080810E94C307CF5FEECFC82DD0E0FE
:1013B000E091CF03F091D003EC0FFD1F80810E94DC
:1013C0006B072496CC0FDD1FC359DC4F892B09F026
:1013D0004BC0888199818A299B299983888383942A
:1013E0008091D303881610F3E091D103F091D203DA
:1013F000E00FF11F61E080810E9494078091D1038A
:101400009091D203FC01E00FF11F60E080810E9407
:10141000C30793948091D403981658F5092D10E0D2
:10142000E091D103F091D203E00FF11F61E08081E0
:101430000E94C307E091D103F091D203E00FF11FA6
:1014400060E080810E949407D301C201092C04C08E
:10145000880F991FAA1FBB1F0A94D2F75C017C0159
:10146000E094F094812CBCCF888199818E219F21BA
:10147000B4CFCDE6D3E0FE01878D90A1892B21F476
:10148000148E368E258E11A23696CE16DF06A1F763
:1014900010E08091D303181770F500E0E12EF12CD5
:1014A000C701880F991FFC01EB58FC4F7F01209169
:1014B000D4030217F0F4F70140815181002E02C0DD
:1014C000569547950A94E2F7642F6170129F900138
:1014D0001124200F311DEDE6F3E080E0A58DB68DDF
:1014E0002A173B0709F473C08F5F36968A30B1F72D
:1014F00050C01F5FCECF80E099A1911181E0269668
:10150000CC16DD06C9F79FB7F8944091C002509100
:10151000C1026091C2027091C3029FBF4093C90390
:101520005093CA036093CB037093CC03882379F064
:1015300080918E03882359F080918C0390918D03C4
:10154000019729F4C0918903C11104C01FC01092F2
:10155000D9031CC08091690290916A02843191057F
:1015600034F4019690936A028093690207C0109246
:101570006A021092690280E00E9480050E94B6050E
:1015800041E06C2F8CED93E00E942E040E949802A3
:10159000D4CE40FF1EC0EDE6F3E080E090E0448D45
:1015A000411119C0E091CD03F091CE03E20FF31F7A
:1015B0007081F6E0F89FA001F99F500D1124FA0107
:1015C000E359FC4F748F368F258F10A2178E0E941F
:1015D000C8050F5F6CCF019636968A309105F9F6F3
:1015E000F8CF1092C7021092C60288EE93E0A0E0F6
:1015F000B0E08093C8029093C902A093CA02B0934E
:10160000CB0224E232E03093C5022093C402109250
:10161000D3021092D2028093D4029093D502A09369
:10162000D602B093D70286E392E09093D1028093E2
:10163000D00285EC90E09093DD028093DC0284EC94
:1016400090E09093DF028093DE0280EC90E0909334
:10165000E1028093E00281EC90E09093E3028093BA
:10166000E20282EC90E09093E5028093E40286EC43
:1016700090E09093E7028093E6021092E9021092C4
:10168000EA021092EB021092EC021092DF03109229
:10169000DE0382E592E09093DD038093DC031092F9
:1016A000E50387E28093E00384E18093E60384E02E
:1016B0008093E7031092E80310926F031092730374
:1016C000109272031092740388E492E090936E0378
:1016D00080936D03EDE6F3E089EA93E0148E10A2A7
:1016E000178E11A236968E179F07C1F784E092E0FD
:1016F0009093D0038093CF0380E092E09093D20345
:101700008093D10384E08093D3038093D40388E053
:1017100092E09093CE038093CD038AE090E0909383
:10172000D6038093D50384EF91E09093D803809300
:10173000D7031092DB031092DA031092C9031092C0
:10174000CA031092CB031092CC031092D9030895D0
:10175000EE0FFF1F881F8BBF0790F691E02D1994A5
:0E17600081E090E0F8940C94B50BF894FFCF64
:10176E001E1F2021222324253132334134353642A7
:10177E00373839432A302344000040001400540007
:10178E0000000000FB04CE04D202A204C604B20480
:10179E00A3040000000029029601C0017602F101A7
:1017AE00CF01E30100000000D502D902DD020000E6
:1017BE00000045049601D202D10248656C6C6F2C74
:0817CE0020576F726C642100CA
:00000001FF
